:020000040800F2
:1000000078090020CD010008350D0008CB0C000850
:10001000050D00083B060008C7200008000000008E
:1000200000000000000000000000000009140008AB
:10003000E107000800000000391100081D15000844
:10004000E7010008E7010008E7010008E7010008F0
:10005000E7010008E7010008E50700083D0800087F
:10006000E7010008E7010008E7010008E7010008D0
:10007000E7010008E7010008E7010008E7010008C0
:10008000E7010008E7010008E7010008E7010008B0
:10009000E7010008E7010008E7010008E7010008A0
:1000A000E701000825180008E7010008E70100083B
:1000B000E701000835190008E7010008E70100081A
:1000C000E7010008E7010008E7010008E701000870
:1000D000E70100088D1E0008E7010008E70100089D
:1000E000E7010008E7010008E7010008E701000850
:1000F000E7010008E7010008E7010008E701000840
:10010000E7010008E7010008E7010008E70100082F
:10011000E7010008E7010008E7010008E70100081F
:10012000E7010008E7010008E7010008E70100080F
:1001300000F002F800F03AF80AA090E8000C8244BF
:100140008344AAF10107DA4501D100F02FF8AFF29C
:10015000090EBAE80F0013F0010F18BFFB1A43F0A5
:1001600001031847EC2A00000C2B0000103A24BFB2
:1001700078C878C1FAD8520724BF30C830C144BF0C
:1001800004680C607047000000230024002500264E
:10019000103A28BF78C1FBD8520728BF30C148BFEA
:1001A0000B6070471FB51FBD10B510BD00F06EF895
:1001B0001146FFF7F7FF02F02DF900F0A0F803B4A5
:1001C000FFF7F2FF03BC01F080FF00000948804701
:1001D00009480047FEE7FEE7FEE7FEE7FEE7FEE729
:1001E000FEE7FEE7FEE7FEE704480549054A064B41
:1001F0007047000021150008310100087803002035
:10020000780900207805002078050020704700005C
:100210000FB4044910B503AA029800F009F810BC05
:100220005DF814FB5400002070477047704770471A
:10023000074B70B50D467B4400F011F80446284684
:1002400000F020F810B14FF0FF3070BD204670BDB7
:10025000BF21000001694A1C02610878704700B59F
:100260008FB0CDE901310021059105497944CDE9EF
:1002700003101146684600F02EF80FB000BD0000D4
:10028000E5FFFFFF007B00F080007047754600F03F
:100290003DF8AE4605006946534620F00700854606
:1002A00018B020B5FFF7A0FFBDE820404FF00006D2
:1002B0004FF000074FF000084FF0000B21F007014E
:1002C000AC46ACE8C009ACE8C009ACE8C009ACE891
:1002D000C0098D4670472DE9F04106460024D6E955
:1002E0000170F5688046304603E04146B847641C1B
:1002F0003046A8470028F8D12046BDE8F0810446E2
:10030000AFF300802046FFF75AFF00000048704717
:100310001803002008B50121084600F01BFF012149
:100320004FF4067000F036FF2020ADF800001020DA
:100330008DF8030003208DF802006946194800F08B
:10034000E1FB2021174800F0B1FC4020ADF800008F
:1003500010208DF8030003208DF802006946114833
:1003600000F0D0FB40210F4800F0A0FC8020ADF849
:10037000000010208DF8030003208DF8020069466C
:10038000084800F0BFFB8021064800F08FFC0F20DA
:10039000ADF8000000208DF803006946024800F027
:1003A000B1FB08BD000C01400010014000B591B048
:1003B0003D4800F051F93D4806903D480790002027
:1003C00008900A9080200B90C82009904FF480700C
:1003D0000C9080000D9020200E9000020F900020C5
:1003E000109006A9304800F0DDF901212E4800F0F8
:1003F00026F90020019001208DF808008DF80900F1
:100400004FF4602003900020049004208DF8140025
:1004100001A926484C3800F077F84FF4004000F06E
:100420008DFE072301220A2120484C3800F094F861
:10043000072302220B211D484C3800F08DF80723BA
:1004400003220C2119484C3800F086F807230422B7
:100450000D2116484C3800F07FF8012113484C3824
:1004600000F033F8012111484C3800F023F80F4810
:100470004C3800F0CDF800BF0C484C3800F03AF88A
:100480000028F9D109484C3800F0D2F800BF0748DD
:100490004C3800F025F80028F9D1012103484C38E8
:1004A00000F0BBF811B000BD080002404C24014030
:1004B000C000002021B1826842F00102826003E0A6
:1004C000826822F001028260704721B1826842F4A2
:1004D0008072826003E0826822F4807282607047DA
:1004E000014600208A6802F004020AB1012000E0FF
:1004F00000207047014600208A6802F008020AB115
:10050000012000E00020704730B5024600200023A3
:1005100050680F4C20400D790C6844EA05242043B4
:10052000506090680B4C2040D1E902542C434D7927
:1005300044EA450420439060D06A20F470000C7CAB
:10054000641EE4B2234340EA0350D06230BD000091
:10055000FFFEF0FFFDF7F1FFF0B504460D46002069
:100560000021092D11DDE068A5F10A0606EB46071A
:10057000072606FA07F18843A5F10A0606EB4606A8
:1005800003FA06F10843E0600CE0206905EB45073B
:10059000072606FA07F1884305EB450603FA06F13C
:1005A00008432061072A0FDA606B561E06EB8607A8
:1005B0001F2606FA07F18843561E06EB860605FA43
:1005C00006F10843606322E00D2A0FDA206BD61F84
:1005D00006EB86071F2606FA07F18843D61F06EBAF
:1005E000860605FA06F10843206310E0E06AA2F1EE
:1005F0000D0606EB86071F2606FA07F18843A2F1CF
:100600000D0606EB860605FA06F10843E062F0BD2A
:10061000816841F008018160704721B1826842F42D
:10062000A002826003E0826822F4A0028260704728
:10063000816841F004018160704700BFFEE721B18D
:10064000026842F00102026004E002684FF6FE73A5
:100650001A4002607047000001684FF6FE721140B8
:1006600001600021016041608160C1604B498842A6
:1006700008D14A490839496841F00F01474A083A08
:1006800051608AE045491431884208D1434908390C
:10069000496841F0F001414A083A51607DE03F4924
:1006A0002831884208D13D490839496841F47061D0
:1006B0003A4A083A516070E038493C31884208D1E2
:1006C00036490839496841F47041344A083A516062
:1006D00063E032495031884208D1304908394968CD
:1006E00041F470212D4A083A516056E02B4964319B
:1006F000884208D129490839496841F47001274ADC
:10070000083A516049E025497831884208D12349A7
:100710000839496841F07061204A083A51603CE06C
:100720001F49884206D1011F096841F00F01021FCD
:10073000116032E01A491431884208D11849091F62
:10074000096841F0F001164A121F116025E01449B2
:100750002831884208D11249091F096841F47061A3
:100760000F4A121F116018E00D493C31884208D130
:100770000B49091F096841F47041094A121F1160B1
:100780000BE007495031884207D10549091F096824
:1007900041F47021024A121F1160704708000240A4
:1007A0000804024010B50022026847F6F0739A432D
:1007B0000C6A8B6823430C6923434C6923438C697F
:1007C0002343CC6923434C6A23438C6A23431A4353
:1007D0000260CB6843600B6883604B68C36010BDE8
:1007E000704700000120124908601248006878B97B
:1007F0001048001D006828B90F480068401C0E49C9
:10080000086014E00C480068401E0B4908600EE0C8
:100810000848001D006828B907480068401E0649BE
:10082000086004E004480068401C03490860704701
:1008300014040140008121421400002002201349C9
:1008400008601348006801280FD11148001F006894
:1008500028B910480068401C0E49086014E00D4893
:100860000068401E0B4908600EE00948001F006840
:1008700028B908480068401E0649086004E0054899
:100880000068401C034908607047000014040140E0
:100890000481214214000020002123498279002A8A
:1008A0003AD00A46126803689A430B461A600A1D3A
:1008B000126803689A430B1D1A60027911440A6892
:1008C00003681A430A60184A0832126803689A4398
:1008D000154B08331A601A1D126803689A43124BAD
:1008E0000C331A604279102A0ED11A1F126803685D
:1008F0001A430D4B08331A601A1D126803681A4315
:10090000094B0C331A600DE00749427911440A681B
:1009100003681A430A6005E0027911440A68036813
:100920009A430A60704700000004014000B589B096
:100930000121022000F01EFC0121042000F02AFC0D
:10094000C020ADF8080004208DF80B0002A924484F
:1009500000F0D8F832208DF8040001208DF8050051
:1009600000208DF8060001208DF8070001A800F096
:100970004BFB06A801F080FA0020ADF818004FF6F6
:10098000FF70ADF81C000020ADF81E00ADF81A0095
:1009900006A9144801F01EFA00231A460321114843
:1009A00000F0ECFF03A801F071F80A20ADF8140084
:1009B00003A90C4801F014F801210A4800F0CCFF0B
:1009C00001221146074801F06AF80021054801F0AC
:1009D000D3F90121034800F0C5FF09B000BD0000B4
:1009E00000080140000400401FB50121084600F046
:1009F000D1FB0121082000F0CDFB0120ADF80C0057
:100A000048208DF80F0003A9124800F07BF8002160
:100A1000012000F057F80120019000208DF8080017
:100A200010208DF8090001208DF80A0001A8FFF7B9
:100A300033FF06208DF8000001208DF80100002012
:100A40008DF8020001208DF80300684600F0DCFA02
:100A50001FBD0000000C01401FB50121084600F039
:100A600099FB0121082000F095FB0220ADF80C0055
:100A700048208DF80F0003A9114800F043F8012128
:100A8000084600F01FF80220019000208DF80800B1
:100A900010208DF8090001208DF80A0001A8FFF749
:100AA000FBFE07208DF8000001208DF801008DF875
:100AB00002008DF80300684600F0A6FA1FBD000092
:100AC000000C014030B500228B071C0F0F2303FAE6
:100AD00004F20B4B8C1053F824309343084C8D10C8
:100AE00044F8253023468C1053F824308C07240F0B
:100AF00000FA04F42343024C8D1044F8253030BD35
:100B0000080001402DE9F0410246002500260020A2
:100B100000230024002791F803C00CF00F0591F882
:100B200003C00CF0100CBCF1000F03D091F802C010
:100B30004CEA050591F800C0BCF1000F31D01468F3
:100B400000202BE04FF0010C0CFA00F3B1F800C0CC
:100B50000CEA03069E4220D183004FF00F0C0CFAE2
:100B600003F7BC4305FA03FC4CEA040491F803C004
:100B7000BCF1280F06D14FF0010C0CFA00FCC2F8B2
:100B800014C00AE091F803C0BCF1480F05D14FF042
:100B9000010C0CFA00FCC2F810C0401C0828D1D38C
:100BA0001460B1F800C0BCF1FF0F34DD54680020C0
:100BB0002EE000F1080C4FF0010808FA0CF3B1F830
:100BC00000C00CEA03069E4221D183004FF00F0CB7
:100BD0000CFA03F7BC4305FA03FC4CEA040491F851
:100BE00003C0BCF1280F05D100F1080C08FA0CF87D
:100BF000C2F8148091F803C0BCF1480F07D100F18E
:100C0000080C4FF0010808FA0CF8C2F81080401CDC
:100C10000828CED35460BDE8F0810000F0B50A4644
:100C2000002300240021002500F00046B6F1004F0B
:100C300002D11D4EF16901E01B4E7168C0F30345FE
:100C400083B200F44016B6F5401F08D121F0706160
:100C5000154E766826F07066134F7E6012E000F441
:100C60008016B6F5801F06D1032606FA05F4A143C7
:100C700041F0706106E0460D360103FA06F6B14315
:100C800041F0706122B1460D360103FA06F6314398
:100C900000F00046B6F1004F02D1034EF16101E0D1
:100CA000014E7160F0BD00000000014041617047DD
:100CB0000161704702464FF4A57002FB00F1C817AE
:100CC00001EB1050C0F30F30704700BFFEE700008B
:100CD00008B50121402000F05DFA2020ADF80000A9
:100CE00010208DF8030003208DF8020069460448A7
:100CF000FFF708FF20210248FFF7DAFF08BD0000D8
:100D00000018014000BFFEE708B50121042000F0F3
:100D100041FA0F20ADF8000018208DF803000320E1
:100D20008DF8020069460248FFF7ECFE08BD00009E
:100D300000080140704700001CB511A103C9CDE9AE
:100D40000001082000F014FB05226946302000F065
:100D500025F905226946102000F084F8002406E0F9
:100D60001DF80400A52800D003E0601CC4B2052CC7
:100D7000F6DB00BF052C01D001201CBD0020FCE7E4
:100D8000A5A5A5A5A500000000B587B001214FF4D9
:100D9000847000F0FFF94FF48050ADF81800102077
:100DA0008DF81B0003208DF81A0006A92848FFF7CC
:100DB000A9FE4FF480512648FFF77AFFC020ADF816
:100DC000180006A92348FFF79DFE4FF48070ADF888
:100DD000180028208DF81B0006A91E48FFF792FE78
:100DE0004FF4E0711B48FFF761FF00F04DFA00215E
:100DF000194800F0D1FA0020ADF804004FF48270D9
:100E0000ADF806000020ADF80800ADF80A00ADF816
:100E10000C004FF40070ADF80E001820ADF8100073
:100E20000020ADF812000720ADF8140001A90A480F
:100E300000F0CCFA0121084800F0AEFA0020074982
:100E4000086001200649C1F89C0107B000BD000000
:100E5000000C01400020014000380040980124426D
:100E6000000024422DE9F04107460D4616460020B9
:100E70000A490860384600F051FA8046002405E02F
:100E8000FF2000F04BFA2855601CC4B2B442F7DBD7
:100E90000120024908604046BDE8F0819C012442DF
:100EA00070B50446002007490860204600F036FA75
:100EB000FF2000F033FA054601200349C1F89C01E8
:100EC000284670BD9C0124420000244210B5002039
:100ED0001449086005221449302000F05FF805220B
:100EE00012492A2000F05AF80121212000F074F85C
:100EF0000121222000F070F81A21242000F06CF863
:100F00000021252000F068F80F21262000F064F869
:100F10000E21202000F060F801200549C1F8980159
:100F200010BD000098012442442C0008492C000800
:100F30000000244270B50546102000F019FA002088
:100F40001449086020222946A02000F027F801203B
:100F50001149C1F8980100BF0E4878380068002890
:100F6000FAD10720FFF79CFF04462146272000F016
:100F700033F804F0100028B1FF21E12000F02CF834
:100F8000102070BD04F0200008B12020F9E7FF20F8
:100F9000F7E7000098012442000024422DE9F041C7
:100FA00007460C46154600200A490860384600F0FE
:100FB000B5F98046002605E014F8010B00F0AEF903
:100FC000701CC6B2AE42F7DB012002490860404601
:100FD000BDE8F0819C01244270B505460C46002016
:100FE00007490860284600F099F90646204600F0B7
:100FF00095F901200349C1F89C01304670BD0000FD
:101000009C0124420000244270B5002100230F22DD
:10101000C47804B3154C246804F4E064C4F5E064B7
:10102000210AC1F10403CA40447804FA03F1847828
:101030001440214309010E4C0678A155047804F0B0
:101040001F050124AC4005786D11AD0005F1E025C8
:10105000C5F8004109E0047804F01F050124AC4004
:10106000044D0678761145F8264070BD0CED00E081
:1010700000E400E080E100E002490143024A11601F
:10108000704700000000FA050CED00E030B587B0B5
:1010900005460C460121082000F06CF8ADF814500C
:1010A000ADF810400020ADF81600ADF8120004A90C
:1010B000204800F08FFE6020ADF800000120ADF860
:1010C00002000020ADF8080069461A4800F0F0FC64
:1010D0000821184800F038FD6946164800F03EFD2A
:1010E0000821144800F08CFD6946124800F096FD76
:1010F0000821104800F0E2FD69460E4800F0E8FDC6
:1011000008210C4800F022FE01210A4800F02AFCC8
:101110000021084800F027FE0021064800F025FEC7
:101120000021044800F023FE0021024800F021FEC7
:1011300007B030BD000C00407047000001460020A1
:10114000034A506820F44040084350607047000054
:101150000010024029B1064A52690243044B5A6109
:1011600004E0034A52698243014B5A617047000010
:101170000010024029B1064AD2690243044BDA61E9
:1011800004E0034AD2698243014BDA6170470000F0
:101190000010024029B1064A92690243044B9A6149
:1011A00004E0034A92698243014B9A617047000050
:1011B0000010024030B500210022002400232D4DF4
:1011C0006D6805F00C0121B1042905D0082923D14F
:1011D00005E0294D056022E0274D05601FE0254D03
:1011E0006D6805F47012234D6D6805F48034022596
:1011F00005EB92421CB9214D554305600BE01D4D96
:101200006D6805F400351DB11C4D5543056002E0C5
:10121000194D5543056002E0174D056000BF00BF42
:10122000144D6D6805F0F0010909154D6B5C0568FA
:10123000DD4045600F4D6D6805F4E061090A104D11
:101240006B5C4568DD4085600A4D6D6805F4605152
:10125000C90A0B4D6B5C4568DD40C560054D6D6886
:1012600005F44041890B074D6B5CC568B5FBF3F590
:10127000056130BD0010024000127A0000093D00F7
:101280005A0000206A00002000B587B00121082024
:10129000FFF780FF01218803FFF76CFF4FF46040E8
:1012A000ADF8180018208DF81B0003208DF81A00E7
:1012B00006A91848FFF726FC4FF460411548FFF7D0
:1012C000F7FC0020ADF804004FF48270ADF8060082
:1012D0000020ADF808000220ADF80A000120ADF8AA
:1012E0000C004002ADF80E003820ADF810000020D0
:1012F000ADF812000720ADF8140001A9064800F06F
:1013000065F80121044800F047F8FF2000F006F8D6
:1013100007B000BD000C01400038004070B5054624
:10132000002405E0601CC4B2C82C01DD002070BDA3
:1013300002210E4800F03CF80028F3D029460B4863
:1013400000F042F8002405E0601CC4B2C82C01DDA6
:101350000020ECE70121054800F02AF80028F3D02E
:10136000024800F02EF8C0B2E1E70000003800406B
:1013700010B50446074800884FF6C7710840054974
:10138000088008460088204308800121014800F0B9
:1013900003F810BD0038004021B1028842F040023D
:1013A000028004E002884FF6BF731A400280704743
:1013B0000246002013890B400BB1012000E0002001
:1013C00070470146888970478181704710B50022B7
:1013D000028802F441520B884C8823438C882343B3
:1013E000CC8823430C8923434C8923438C89234392
:1013F000CC8923431A430280838B4FF2FF7423402E
:1014000083830B8A038210BD704710B500F002F889
:1014100010BD00000CB5002001900090334800681A
:1014200040F480303149086000BF3048006800F463
:10143000003000900198401C0190009818B9019864
:10144000B0F5A06FF1D12948006800F4003010B168
:101450000120009001E0002000900098012843D175
:101460002348006840F010002149086008460068E1
:1014700020F0030008600846006840F002000860A1
:101480001A4840681949486008464068486008465C
:10149000406840F4806048600846406820F47C1052
:1014A00048600846406840F4E81048600846006814
:1014B00040F08070086000BF0C48006800F00070C9
:1014C0000028F9D00948406820F003000749486027
:1014D0000846406840F00200486000BF034840688A
:1014E00000F00C000828F9D10CBD000000100240EB
:1014F00000200240042808D14FF0E021096941F0A2
:1015000004014FF0E022116107E04FF0E02109698A
:1015100021F004014FF0E022116170477047000094
:1015200010B51348006840F00100114908600846F2
:101530004068104908400E494860084600680E4956
:1015400008400B4908600846006820F480200860C5
:101550000846406820F4FE0048604FF41F00886091
:10156000FFF753FF4FF000600449086010BD000012
:10157000001002400000FFF8FFFFF6FE08ED00E05B
:10158000F0B50C46154600220021068C4FF6FE777A
:101590003E400684028B018C4FF60C7632407E1C56
:1015A00006EA03162E433243104EB0420ED0104EC0
:1015B000B0420BD0B0F1804F08D00E4EB04205D0F3
:1015C0000D4EB04202D00D4EB04206D14FF6FD7620
:1015D000314044F00106314305E04FF6F5763140E5
:1015E00044F00106314302830184F0BD002C014028
:1015F000003401400004004000080040000C00409E
:10160000F0B50C461546002200210026078C4FF647
:10161000EF7C07EA0C070784028B018C4FF6FF77FB
:1016200007EA041640F6FF473A404FF6FF7707EA0D
:1016300003373A434FF6FF7707EA05273A43114F3E
:10164000B8420ED0104FB8420BD0B0F1804F08D046
:101650000E4FB84205D00E4FB84202D00D4FB842DF
:1016600006D14FF6DF77394046F01007394305E0E1
:101670004FF65F77394044F0100739430283018405
:10168000F0BD0000002C0140003401400004004087
:1016900000080040000C0040F0B50C461546002242
:1016A00000210026078C4FF6FF6C07EA0C07078421
:1016B000828B018C4FF6FF7707EA04264FF60C77F2
:1016C0003A404FF6FF7707EA03172F433A43114F8B
:1016D000B8420ED0104FB8420BD0B0F1804F08D0B6
:1016E0000E4FB84205D00E4FB84202D00D4FB8424F
:1016F00006D14FF6FF57394046F48077394305E06D
:101700004FF2FF57394044F4807739438283018494
:10171000F0BD0000002C01400034014000040040F6
:1017200000080040000C0040F0B50C4615460022B1
:1017300000210026078C4EF6FF7C07EA0C07078481
:10174000828B018C4FF6FF7707EA043640F6FF479D
:101750003A404FF6FF7707EA05273A434FF6FF77FF
:1017600007EA03373A43114FB8420ED0104FB84240
:101770000BD0B0F1804F08D00E4FB84205D00E4FBD
:10178000B84202D00D4FB84206D14DF6FF7739402E
:1017900046F48057394305E047F6FF57394044F493
:1017A0008057394382830184F0BD0000002C014042
:1017B000003401400004004000080040000C0040DC
:1017C0001FB50121C802FFF7E5FC41F28730ADF8F3
:1017D00008008F20ADF804000020ADF80A00ADF835
:1017E00006008DF80C0001A90D4800F0F3FA012263
:1017F00011460B4800F053F919208DF80000002025
:101800008DF801008DF8020001208DF80300684674
:10181000FFF7FAFB0121024800F0A4F81FBD000009
:10182000002C014010B50121184800F0C8F858B349
:1018300017480078401C16490870084600780A28A6
:1018400019D1002008701348006808B9012000E091
:1018500000201049086000F0DDFC00F039FC0E4863
:10186000FFF768FB202803D100200A49086002E046
:101870000120084908600121044800F070F80020A8
:10188000064908800649086010BD0000002C014090
:101890002C00002094012342A000002024040040DA
:1018A0001400002030B589B005460C4601210846D9
:1018B000FFF760FC01210920FFF76CFC01211B48A8
:1018C000FFF7ACF94FF48060ADF8200018208DF8D8
:1018D000230003208DF8220008A91548FFF712F90C
:1018E000ADF81850ADF814400020ADF81A00ADF86E
:1018F000160005A94FF0804000F06CFA6020ADF8AA
:1019000004000120ADF806000020ADF80C0001A98C
:101910004FF0804000F082F90821C80600F0CEF9AF
:101920000121880700F01EF809B030BD000318003F
:10193000000C014010B50121064800F040F838B114
:101940000121044800F00BF80121024800F004F8DE
:1019500010BD000000040040CA4302827047CA4321
:101960000282704721B1028842F00102028004E045
:1019700002884FF6FE731A4002807047F0B50C469D
:1019800015461E460021002200230189028B038C8C
:101990004FF6F877394021434FF6FC473A4040F282
:1019A00001173A434FF6DD773B404FF6FF7707EAE2
:1019B00006172F433B43018102830384F0BD30B5FA
:1019C0000246002000230024158A05EA01039589B8
:1019D00005EA010413B10CB1012000E0002030BD84
:1019E00070B505460C46244885420ED023488542F2
:1019F0000BD0B5F1804F08D02148854205D0214851
:101A0000854202D02048854200D100E000BF2088F6
:101A100050B92389A28861882846FFF7B1FDE18883
:101A2000284600F0ABF925E0208804280AD1238954
:101A3000A28861882846FFF7E3FDE188284600F088
:101A4000A6F917E0208808280AD12389A28861888E
:101A50002846FFF721FEE188284600F0A5F909E0B5
:101A60002389A28861882846FFF75EFEE188284620
:101A700000F0A3F970BD0000002C014000340140CB
:101A80000004004000080040000C004000210180DC
:101A90004180012181800021C180018170471AB1FC
:101AA00083890B43838102E083898B438381704761
:101AB00070B5002400220023058C4FF6FE763540D9
:101AC0000584028C8388048B4FF68F752C40B51EDD
:101AD0002C400D882C43751E2A400D892A434D88C1
:101AE0002A43144DA8420BD0134DA84208D0134DE1
:101AF000A84205D0124DA84202D0124DA84213D1DF
:101B00004FF6F7752A404D892A434FF6FB752A4058
:101B10008D882A434FF6FF652B404FF6FF552B402B
:101B20008D892B43CD892B4383800483CD88858683
:101B3000028470BD002C014000340140004001408F
:101B400000440140004801400A460021018B4FF645
:101B5000F7731940114301837047000070B50024EA
:101B600000220023058C4FF6EF7635400584028C69
:101B70008388048B48F6FF752C404FF6FF452C40B8
:101B80000D884FF6FF7606EA05252C434FF6DF75E4
:101B90002A400D8906EA05152A434D8806EA0515EF
:101BA0002A43154DA84202D0144DA8421DD14FF62C
:101BB0007F752A404D894FF6FF7606EA05152A43C0
:101BC0004FF6BF752A408D8806EA05152A434FF661
:101BD000FF352B404FF2FF752B408D8906EA8505B6
:101BE0002B43CD8906EA85052B4383800483CD886A
:101BF0000587028470BD0000002C014000340140C4
:101C00000A460021018B4FF2FF7319404FF6FF7314
:101C100003EA0223194301837047000070B50024D2
:101C200000220023058C4FF6FF6635400584028CA8
:101C30008388848B4FF68F752C404FF6FC752C40B3
:101C40000D882C434FF6FF552A400D894FF6FF763D
:101C500006EA05252A434D8806EA05252A43154D3F
:101C6000A84202D0144DA8421DD14FF2FF752A4060
:101C70004D894FF6FF7606EA05252A434FF6FF35D4
:101C80002A408D8806EA05252A434EF6FF752B402B
:101C90004DF6FF752B408D8906EA05152B43CD893E
:101CA00006EA05152B4383808483CD8885870284CB
:101CB00070BD0000002C0140003401400A460021A4
:101CC000818B4FF6F77319401143818370470000F1
:101CD00070B5002200230024058C4EF6FF763540B7
:101CE0000584038C8488828B48F6FF752A404FF662
:101CF000FF452A400D884FF6FF7606EA05252A4360
:101D00004DF6FF752B400D8906EA05352B434D88AE
:101D100006EA05352B430B4DA84202D00A4DA842D6
:101D200008D14BF6FF752C408D894FF6FF7606EAF9
:101D300085152C4384808283CD88A0F8405003848D
:101D400070BD0000002C0140003401400A46002113
:101D5000818B4FF2FF7319404FF6FF7303EA0223A2
:101D60001943818370478186704701877047818757
:101D70007047A0F84010704781847047028B4FF67F
:101D8000F3731A400283028B0A4302837047028B6B
:101D90004FF2FF331A400283028B4FF6FF7303EAC0
:101DA00001231A4302837047828B4FF6F3731A4064
:101DB0008283828B0A4382837047828B4FF2FF3388
:101DC0001A408283828B4FF6FF7303EA01231A4382
:101DD00082837047002202881D4B98420ED01D4B13
:101DE00098420BD0B0F1804F08D01B4B984205D0E1
:101DF0001A4B984202D01A4B984204D14FF68F7377
:101E00001A404B881A43174B984207D0164B9842FA
:101E100004D04FF6FF431A40CB881A4302808B88C8
:101E200083850B8803850A4B98420BD0094B984257
:101E300008D00E4B984205D00D4B984202D00D4B66
:101E4000984201D10B7A03860123838270470000F8
:101E5000002C014000340140000400400008004014
:101E6000000C004000100040001400400040014001
:101E700000440140004801404FF6FF71818000217D
:101E80000180C180418001727047000010B540F2AE
:101E900025511D4800F057F810B31B4800F00EF90B
:101EA000C4B21A48008800F40040C8B91748008836
:101EB00000F4804060B10A2C03D000201349088050
:101EC00020E01248008840F400401049088019E0E2
:101ED0000D2C06D10D48008840F480400B49088045
:101EE00010E00A480088C0F30D0009490C54074867
:101EF0000088401C0549088008460088C72801DD85
:101F00000020088010BD000000380140580000206B
:101F10005002002021B1828942F40052828104E003
:101F200082894DF6FF731A40828170470246002075
:101F3000B1F5007F00D100BF13880B400BB1012029
:101F400000E00020704770B5024600240023002501
:101F5000002040F66A16B14200D100BFC1F342151D
:101F600001F01F03012606FA03F3012D02D1968921
:101F7000334006E0022D02D1168A334001E0968AF2
:101F800033400C12012606FA04F41688344013B1CB
:101F90000CB1012000E0002070BDF0B50346002424
:101FA00000260025002040F66A17B94200D100BF84
:101FB0001846C1F3421401F01F06012707FA06F57F
:101FC000012C01D10C3004E0022C01D1103000E0D2
:101FD00014301AB107682F43076002E00768AF4367
:101FE0000760F0BD2DE9F04786B005460E46002497
:101FF000A24600BFA1460027B08900B100BF2F460E
:102000002C8A4CF6FF700440F08804432C82AC8983
:102010004EF6F3100440B0883189084371890843B3
:102020000443AC81AC8A4FF6FF400440B0890443BE
:10203000AC8201A8FFF7BEF81F48874202D1DDF845
:1020400010A001E0DDF80CA0A88900F4004040B128
:102050000AEBCA0000EB0A1031684900B0FBF1F846
:1020600007E00AEBCA0000EB0A1031688900B0FBF8
:10207000F1F86420B8FBF0F004012009642101FBB1
:102080001089A88900F4004040B1322000EBC9005B
:10209000B0FBF1F000F00700044308E0322000EB51
:1020A00009106421B0FBF1F000F00F0004432C8113
:1020B00006B0BDE8F087000000380140014688887E
:1020C000C0F30800704700BFFEE7014600BF70473D
:1020D0000FB5002014E0294931F810100A2291FBB5
:1020E000F2F109290ADD254931F8101091FBF2F3CC
:1020F00002FB13115A31214A22F81010411CC8B2B8
:102100000828E8DB002015E01C4931F810100A22ED
:1021100091FBF2F302FB13113031C9B20DF800103C
:10212000164931F8101091FBF2F1303102AA115426
:10213000411CC8B20828E7DB1A21114A117000209F
:1021400013E002A90A5C00EB4001491C0C4B5A54F5
:102150001DF8002000EB4001891C5A54202200EB9E
:102160004001C91C5A54411CC8B20828E9DB0D21A2
:10217000034A11760A2151760FBD0000900000201D
:10218000A000002010B56FF00400FFF7B3F90A4873
:1021900000680A49B0FBF1F0094908700846007868
:1021A00000EB4001C1EBC0104FF6FF7101EAC00027
:1021B0000449088010BD00000000002000127A00D1
:1021C00050000020520000200146114A12884A4364
:1021D0004FF0E0235A6100229A611A46126942F0D8
:1021E00001021A6100BF4FF0E022106900F0010205
:1021F0001AB100F48032002AF5D04FF0E0221269C3
:1022000022F001024FF0E0231A6100229A61704728
:10221000520000202DE9F05F00205A4908605A4919
:10222000C1F898015749083108600520FFF7CCFF35
:1022300000BF80215548FFF779FE0028F9D000F053
:10224000BBF800205249088039E0524850490988BB
:1022500030F8110050494E4A128821F812004D49B9
:102260004B4A128831F81200FEF724FD4B49484AC8
:10227000128821F81200464A128831F8120000F044
:1022800090FB82460022464B00F004FA8046454A05
:10229000454B00F0EDFB064632460B4643484449A9
:1022A00000F0F8F9044600F04DFB4249384A128824
:1022B00021F8120036480088401C3549088034480F
:1022C00000880428C1DB01202E49086000202E4927
:1022D000C1F898012B49083108600520FFF774FF09
:1022E00000BF80212948FFF721FE0028F9D000F027
:1022F00063F80020264908803EE0264824490988E2
:1023000030F81110244A22480088001D22F81010CD
:1023100020491F4A128831F81200FEF7CBFC1F4AF1
:102320001B490988091D22F8110019490988091D4E
:1023300032F8110000F035FB06460022184B00F081
:10234000A9F90446174A184B00F092FB8046424612
:102350000B461648164900F09DF9824600F0F2FA45
:1023600081B2144A0A480088001D22F8101008485B
:102370000088401C06490880054800880428BCDB0A
:10238000BDE8F09F94812142008021420038014045
:102390001C00002048000020700000208000002069
:1023A00000005940A4703D0AD7A3C03F14AE47E1D6
:1023B0007A1438409000002010B50022002014E06C
:1023C000002107E00A4B03EBC10333F810301A4435
:1023D0004B1CD9B23229F5DB322392FBF3F3054CC7
:1023E00024F810300022431CD8B20428E8DB10BDCA
:1023F000C00000204800002000BF054A128802F0FB
:102400004002002AF9D0C2B2014B1B1D1A8070474E
:1024100000380140FFF7B6FE4FF4A060FEF72CFE37
:102420004FF4E13000F03EF8FEF752FCFEF7ACFC52
:1024300002E013A0FDF7ECFEFEF77EFC0028F8D1C9
:1024400014A0FDF7E5FEFEF741FDFEF76FFAFEF77B
:10245000CBFAFEF701FBFEF757FC002141F61F40C7
:10246000FEF714FE41F61F41C720FFF71BFAFDF7E8
:1024700051FFFDF79BFFFFF7A3F900BFFEE7000048
:102480004E524632344C3031204572726F720D0A12
:10249000000000004E524632344C3031204F4B0D7C
:1024A0000A00000010B586B00446012144F2040081
:1024B000FEF770FE4FF40070ADF8140003208DF8A5
:1024C000160018208DF8170005A91C48FEF71AFB06
:1024D0004FF48060ADF8140004208DF8170005A9B2
:1024E0001648FEF70FFB25208DF8000003208DF81D
:1024F00001008DF8020001208DF803006846FEF708
:1025000083FD01940020ADF80800ADF80A00ADF895
:102510000C00ADF810000C20ADF80E0001A9084821
:10252000FFF760FD012240F225510548FFF735FD18
:1025300001210348FFF7EEFC06B010BD0008014082
:102540000038014010B591EA030F48BF83F0004303
:1025500000F19682841A71EB030C05D2121943EB39
:102560000C03001B61EB0C01DFF824E14FEA11546E
:10257000A4EB135C1EEA430F18BF9EEA445F73D0BE
:1025800023EA0E03DCF1200E21EA045143F4801308
:1025900032D322FA0CFE10EB0E0023FA0CFE41EBB4
:1025A0000E01CCF1200E03FA0EFE10EB0E0051F1DD
:1025B0000001B1F5801FCCF1200E32D201EB0451A5
:1025C00012FA0EF2BDE8104058BF7047401C38BFE9
:1025D0005FEA420218BF7047002814BF20F00100D4
:1025E00041F100014FEA410313F5001F38BF704766
:1025F000A1F1C04100F036BA012A43EB0302ACF16D
:10260000200CDCF11F0E32BF4FF0000E23FA0CF34A
:1026100010EB030041EB0451B4EB115FD0D0A1EB00
:10262000045101F5801149085FEA300001EB0451C3
:102630000ED350F1000038BF12FA0EFE08D1BDE8EB
:102640001040C9E7401C38BF5FEA4202CAD1C3E765
:10265000BDE810404FEA410313F5001F38BF704733
:10266000A1F1C04100F0FEB99EEA445F08D011EA32
:102670005E0FBDE8104004BF01F00041002070472C
:10268000BDE8104070B500F09FF900BF64FBBE3E8E
:102690000000E0FF2DE9C04130B4DFF8A0C23CEA01
:1026A000111418BF3CEA131400F0EC8081EA030512
:1026B0001CEA111444EAD57418BF1CEA131500F083
:1026C000C780A4EB05044FF0004545EAC12145EA67
:1026D000C32341EA505143EA525304F17F749942B3
:1026E00004F500344FEAC0204FEAC22208BF9042EE
:1026F00000F09C804FEA13650FF24016765D4FEABA
:10270000134506FB05F7C7F1807706FB07F74FEA8D
:10271000D737A7FB03687642C8F58038A7FB06CEFB
:1027200038BFA8F1010807FB08E64FF0000EA6FB32
:10273000028CE6FB03CEDCF1000CCEF1004E38BF7C
:10274000AEF1010EA6FB0C584FF000074FF000054C
:10275000E6FB0E87A1FB08C6A0FB07CE16EB0E0614
:1027600045F10005E1FB076515F1E04E7EBFA4F5DC
:1027700080345FEA46066D4116F1800745F1000599
:102780004FEA17274FEA066647EA0567A6F1DE46D5
:10279000B6F1805F4FEA15251FD9384624F0010CA9
:1027A00005EBC471BCF1FE6F01EB0C1102D8F0BC5B
:1027B000BDE8008124425CBF01F5801E9EEAC47F13
:1027C00002D4F0BCBDE80081244238D4F0BCA1F1B1
:1027D000C041BDE8004100F045B94FEAD22242EACB
:1027E00043524FEAD323A7FB02864FEAD02040EAA8
:1027F000415007FB03661EEA0E0F4FEAD12105FB8D
:10280000026658BFA6EB0056B6EB00564FEA520ED2
:102810004EEAC37E18EB0E0E56EB530EBDD518EBE9
:1028200002085E417F1C55F10005B6E74FF48015A4
:102830004FF000074FF000064FF00008ADE7F0BC86
:102840004FF0000001F1C04101F00041BDE80081FE
:1028500011EA0C1F0CEA131500D00CE013EA0C1F50
:1028600000F025804FF00000F0BC81EA030101F088
:102870000041BDE80081F0BCBDE8004181EA0301F0
:1028800000F0F0B8F0BCBDE8004170B500F09CF875
:10289000097EFC3E00F007B881EA03014FF000001A
:1028A00001F00041704781EA030100F0DBB8F0BCA1
:1028B000BDE800414FF0000021497047FFFDFBF9E2
:1028C000F7F5F4F2F0EEEDEBE9E8E6E4E3E1E0DE63
:1028D000DDDBDAD8D7D5D4D3D1D0CFCDCCCBCAC8D5
:1028E000C7C6C5C4C2C1C0BFBEBDBCBBBAB9B8B7FC
:1028F000B6B5B4B3B2B1B0AFAEADACABAAA9A8A8EF
:10290000A7A6A5A4A3A3A2A1A09F9F9E9D9C9C9BBC
:102910009A99999897979695959493939291919067
:102920008F8F8E8E8D8C8C8B8B8A898988888787F8
:102930008685858484838382828181800000FF076D
:102940000000F87F4FEA41034FEA5353A3F5806339
:10295000D3F11E03C8BFD3F1210C0CDD4FF00042B0
:1029600042EAC12242EA505232FA03FC8CEAE17C8C
:10297000ACEBE1707047102BC4BF0020704703F52B
:10298000787CBCF1FF3F04D06FF0004282EA210066
:10299000704770B500F018F8499224800020704705
:1029A000F2E7B0FA80F310FA03F10AD0C3F11D0385
:1029B00003F580634FEA41504FEA035202EBD12105
:1029C00070474FF0000070470EF1020E2EF0030E1C
:1029D0005EF8046B364205D4012A43EB030515F576
:1029E000001F12D8012841EB010C1CF5001F0CD868
:1029F0000ED14FEAD17C15F5001F0CEB4C0C0CF1FD
:102A0000020C08BF4CEBD37C04E04FF0080C01E053
:102A10004FEAD37C0CEB4C0526FA05F606F00706C8
:102A2000B6F1040C06D20EEB860CBDE870404CF0FB
:102A3000010C6047DFE80CF0090B02024FF0004187
:102A40004FF00000A1F5002170BD19461046012885
:102A500051EB010418BFD4F5001484BF002001F02D
:102A6000004170BD0808A0F500114FEA3101704720
:102A700010B591EA030F48BF83F000433FF56AADFC
:102A8000841A71EB030C07D212198CF0004C43EB43
:102A90000C03001B61EB0C01DFF8A4E14FEA1154B9
:102AA000A4EB135C1EEA430F18BF9EEA445F00F0DC
:102AB000B08023EA6E03524221EA0451C3EB6E0355
:102AC00038BF5B1EDCF1200E25D322FA0CFE10EB82
:102AD0000E0043FA0CFE41EB0E01CCF1200E03FA7E
:102AE0000EFE10EB0E0051F10001CCF1200E29D4A6
:102AF00012FA0EF201EB0451BDE8104058BF7047C6
:102B0000401C1CBFB2F1004F704700280CBF491C8D
:102B100020F00100704712EB020E43EB030218BFD6
:102B20004FF0010E4EEA4202ACF1200CDCF11E0E19
:102B300054D943FA0CFE10EB0E0051F1FF31CCF1E9
:102B40001E0ED5D50EF1010E12FA0EFE404141EBDC
:102B5000010101EB445C5FEA5C5C10D910EBDE70B4
:102B600001EB045138BFBEF1004FBDE8104018BF63
:102B7000704700280CBF491C20F00100704730D27C
:102B80004FEAD42C11F5001124F400641BD0B1FAE3
:102B900081F20B3AA41AA41ED2F12003914030FA1C
:102BA00003F31943904001EBCC71002C01EB04516D
:102BB000BDE81040A8BF704701F1C0414FF00000D0
:102BC00001F000417047B0FA80F310FA03F100D130
:102BD00010BDE41A173C4805C90AE4E701EB0451AB
:102BE00010BD491001EB0451BDE810404FEA300020
:102BF00002E04FF0000170474A0008BF0042F8D0E1
:102C0000B2F5001F28BF704701F000414FF00000EF
:102C100070479EEA445F07D011EA5E0FBDE810409E
:102C200004BF002100207047BDE8104070B5FFF7D9
:102C3000CBFE00BF40DFF63E83F0004110467047F8
:102C40000000E0FFAABBCCDDEEAABBCCDDEE0000AD
:102C5000702C000800000020700000006C010008CB
:102C6000E02C00087000002008090000880100081E
:102C700000A24A040000000000000000010203045A
:102C80000607080900000000000000000000000026
:102C90000000000000000000000000000000000034
:102CA0000000000000000000000000000000000024
:102CB0000000000000000000000000000000000014
:102CC0000000000000000000000000000000010201
:102CD00003040102030406070809020406080000B1
:04000005080001CD21
:00000001FF
